:020000040800F2
:10000000F00A00200116000827160008291600082B
:1000100000000000000000000000000000000000E0
:100020000000000000000000000000002B16000887
:1000300000000000000000002D160008D503000895
:1000400031160008000000003116000831160008C3
:100050003116000831160008311600083116000864
:100060000000000031160008BD0F0008311600081E
:100070003116000831160008311600080000000093
:1000800031160008000000000000000031160008D2
:100090003116000831160008311600083116000824
:1000A000311600083116000831160008D902000880
:1000B0003116000800F002F800F042F80CA030C839
:1000C000083824182D18A246671EAB4654465D46D4
:1000D000AC4201D100F034F87E460F3E0FCCB6465C
:1000E0000126334200D0FB1AA246AB4633431847E1
:1000F0004029000060290000103A02D378C878C176
:10010000FAD8520701D330C830C101D504680C6059
:10011000704700000023002400250026103A01D378
:1001200078C1FBD8520700D330C100D50B607047AF
:100130001FB5C046C04602F0FAFA1FBD10B510BD8B
:1001400002F0AEFB1146FFF7F3FF00F0FBFC02F0FC
:10015000C6FB03B4FFF7F2FF03BC02F0CBFB0000C9
:1001600030B40C490C684A6823681068C0181060E5
:10017000241D121D8C4207D28A4208D20C604A60AC
:1001800030BC4000400870470C00DC3CF6E70A0039
:10019000DC3AF3E784080020F3B5874E8BB00027E4
:1001A0000D463761F760B760776031700121480410
:1001B00001F095F90121880301F09AF90924E40678
:1001C000606A0F2109028843FF3001306062E168F4
:1001D000032000058143E160A1880122920291433E
:1001E000A180A1688143A160216881432160002D25
:1001F0000FD0E16880118143E160A18880229143A2
:10020000A180A1680143A16021688143D001081841
:1002100020606A4D28684008400028606868684986
:10022000084068602868674908402C3028603078AA
:10023000002803D02868402108432860AF6001A847
:1002400001F070F80B99079802F07AFAA8812968F2
:10025000012001432960616AF022914310316162FB
:10026000E268032189048A438304D218E260A288E9
:1002700043021A43A280A2680A43A26022688A430A
:10028000C104511821601B2269460A7048708870A9
:10029000684601F077F90DB0F0BD10B5464C216904
:1002A000E2688020914212D02178002902D00921F1
:1002B000C90688614448E168405C404920310881B2
:1002C000E0681621401C02F045FAE16010BD3B4990
:1002D0000A6882430A6010BD38B5384CE0690006F0
:1002E00001D5FFF7DAFFE069334D400609D5206AF2
:1002F0004021084320622878002802D0334980201A
:100300000881E069800602D4E069000716D5E0693B
:100310002F4C400713D1A8681421401C02F01AFA90
:10032000686881420BD0A0882749AA68143988548C
:10033000A8681421401C02F00DFAA96038BDA088FD
:10034000009038BD70B51C4C054620691621401C34
:1003500002F000FAE0688142F7D01B482169455459
:1003600020691621401C02F0F5F92161134801684B
:1003700080221143016070BD70B50F4CA0686168A8
:1003800088420AD0104861681438455C60681421BE
:10039000401C02F0DFF9616000E00025284670BDD6
:1003A00010B5054881684068081A1430142102F01D
:1003B000D1F988B210BD00000000002000380140D3
:1003C000EF400000020000E0540000202000004840
:1003D00020380140FE480168491C01607047F0B5B3
:1003E00001214E0287B0304601F082F8002000F073
:1003F00055FF012000F0C4FE612000F078FE0028C7
:10040000FAD0F44C204601F065FF002568460571DE
:1004100004200095059004950295694603952046B1
:1004200001F066FF012001F0C4FF0121204601F028
:100430007AFFE94F2046394602F03DF80028F9D00E
:100440002046A56201210022090401F0D3FF012109
:10045000402001F044F80025204602F00AF804216B
:10046000204602F028F80028F9D0204602F006F8CD
:1004700002F074F80421204602F02BF86D1CEDB256
:10048000082DE9D30021204601F04DFF0021304620
:1004900001F02EF8D14802F061F807B0F0BD10B5B8
:1004A000002000F0E0FE002000F0ACFE0521C904B1
:1004B000002000F09BFE012000F0A4FE192000F0B7
:1004C00016FE0028FAD0022000F0CDFE01214804DB
:1004D00001F005F80121880401F001F8E120002174
:1004E0004002FFF759FEBE487D21C900006802F0B6
:1004F00027F900F056FC10BD4018FF2801DDFF2051
:100500007047C0B270478179002907D01E2901D2F7
:10051000012102E03C2902D20221817170475A294F
:1005200001D20421F9E7782901D20821F5E79629BB
:1005300001D21021F1E7B42901D22021EDE7D2291F
:1005400001D24021E9E7F02901D28021E5E7FF212E
:10055000E3E710B50446081B40B25043FF2102F008
:10056000F9F80019C0B210BD10B50446A14207D970
:10057000081BC0B25043FF2102F0E2F8001906E068
:10058000601AC0B25043FF2102F0DAF8201AFF28A7
:1005900001DDFF2010BDC0B210BD10B503780C788E
:1005A0001B195B08137043784C781B195B08537058
:1005B00089788078FFF7A0FF907010BDF8B50D46E0
:1005C00006461C46174609780078FFF7C2FF2070E0
:1005D000697870783A46FFF7C7FF6070A978B078FD
:1005E0003A46FFF7C1FFA070F8BDFFB5054687B0DA
:1005F0000E46D80701D07B48451BD80F0024C018F1
:100600004010059005992046C90701D01F21081BFD
:100610000321490248431F2102F09CF84019C117E9
:10062000090E09180F1200900621781C02F092F8AA
:1006300048000818801903900621384602F08AF80D
:100640004800081887196000211809980B180098AD
:100650000399C2B23846FFF7B1FF641C1F2CD1DBEF
:100660000BB0F0BDFFB5054687B00F46D80701D0E7
:100670005C48451BD80F0024C018401005905A480C
:100680000599005DC90701D0FF21081A55499B391A
:100690004843C117090E081800124019C117090E66
:1006A00009180E12014600910621701C02F052F842
:1006B00048000818C01903900621304602F04AF895
:1006C00048000818610062180999C0195318009968
:1006D000CAB20399FFF772FF641C1F2CCFDBBFE780
:1006E000FFB50E4683B0D90701D03E49081A002451
:1006F000400000903C482B21055D1F30005D143008
:1007000002F01EF8C00701D0FF20451B35489B387A
:100710004543E917090E4919009809124218D017E4
:10072000000E81180D12114601910621681C02F07D
:1007300011F84800081887190621284602F00AF81F
:10074000480008186100621805998019531801992A
:10075000CAB23946FFF732FF641C1F2CCADB9CE685
:10076000FFB5064689B01D46D80701D01D48861B37
:10077000E917480F4019C0100890E80F40194010C1
:100780000690880F00244019801007901648089999
:100790001F30005DC90706D013493E31095D1E298F
:1007A00001D2FF21081A0699C90701D0FF21081AB2
:1007B000062148438019C117090E09180F12014676
:1007C00002910621781C01F0C5FF480009180DE0D0
:1007D000140000200024014001000001E555DABAB0
:1007E0002C000020FF050000D02900080A980818F6
:1007F00004900621384601F0ADFF480009180A9818
:100800000818610062180B99531802991F46CAB262
:100810000499FFF7D3FE0798C00716D0FA48005D89
:100820001E2812D20721284601F094FF052101F06D
:1008300091FFB9700B21284601F08CFF032101F0D4
:1008400089FF787801F086FF7870641C1F2C9DDB8F
:100850000DB0F0BDFFB5054687B00F46D80701D0F3
:10086000EA48451BD80F0024C01840100590E64800
:100870001F38015D1F38005D800808180599C0B257
:10088000C90701D0FF21081A062148434019C117A2
:10089000090E09180E12014600910621701C01F084
:1008A00059FF48000818C01903900621304601F08E
:1008B00051FF48000818610062180999C0195318BF
:1008C0000099CAB20399FFF779FE641C1F2CCEDB96
:1008D000C6E6FFB5054687B00F46D80701D0CB481E
:1008E000451BD80F0024C01840100590C648059934
:1008F000005DC90701D0FF21081A062148434019AD
:10090000C117090E09180E12014600910621701C2C
:1009100001F020FF48000818C01903900621304656
:1009200001F018FF48000818610062180999C01901
:1009300053180099CAB20399FFF740FE641C1F2C9C
:10094000D4DB8DE670B514460D4600235800181808
:1009500001198878C01F00D500205B1C88701F2BF0
:10096000F4DBFFF7FDFBC117090F0918090909019D
:10097000401A072816DDFFF7F3FB062101F0EAFE17
:100980000E46FFF7EDFB1F2101F0E4FE700030186A
:100990002A5C4B00C91862544019427809194A7000
:1009A0008078887070BDFFB587B0044650210A98E2
:1009B00001F0D0FE1E3100910A98C00701D0934883
:1009C000041B0A980A99C00F401840100690002690
:1009D0002046062101F0BEFE05908B483E38815D21
:1009E0000698C00701D0FF20411A0598451A00D586
:1009F0006D42802D01DDFF20451B0098854206DDFC
:100A000070003218099800211018817051E0FD2102
:100A10000A9801F09FFE7C481F38805D0818C117B6
:100A2000090E0918090A0902471A802F02DDFF2062
:100A30000130C71BE017000E011908120391401C7A
:100A4000062101F087FE4800091808980818039944
:100A500004900812062101F07DFE4800091808984C
:100A60000818710072180999029253182146CAB2E7
:100A700001930499FFF7A2FD0098401B0102081A98
:100A8000009901F067FE019B98700198FFF73BFD0C
:100A900023210A9801F05EFE029A0998403F7943AB
:100AA000805CCA17520E5118C9114018029A099950
:100AB0008854761C1F2E90DBD2E570B51C460E467E
:100AC00015460499030001F01CFF08050C131A21B8
:100AD000282F360B0B46224629463046FFF785FD68
:100AE00070BD0B46224629463046FFF7BBFD70BD60
:100AF0000B46224629463046FFF732FE70BD0B46B4
:100B0000224629463046FFF7EBFD70BD0B462246D4
:100B100029463046FFF716FF70BD0B462246294690
:100B20003046FFF740FF70BD0B462246294630464F
:100B3000FFF790FE70BD0B46224629463046FFF770
:100B4000C8FE70BD92B0FFF7AAFC00F04FF9FFF7A6
:100B500046FC01F0D5FD0A20FFF7F4FB5320FFF718
:100B6000F1FB7420FFF7EEFB6120FFF7EBFB722037
:100B7000FFF7E8FB7420FFF7E5FB0A20FFF7E2FB35
:100B800000200A9004460E90089006900B200D90CD
:100B900000200C900220054604901B48F23801907A
:100BA00002901B4E31680E987D27081AFF00B8424C
:100BB00005D92E20FFF7C6FB0E98C0190E901F21F5
:100BC000144800F09EF936684B21090103E00A98A9
:100BD0006418401C0A90301B8842F8D20322301B54
:100BE0005202504301F0ACFD059008987D27301A61
:100BF000BF01B84233D30698002830D1FFF7B0FACE
:100C00000A2101F0A7FD07E00E2A0008FF050000F9
:100C1000140000206A0000200B0001F072FE0A069A
:100C20000845484B4E5154575A0B684801E06748F5
:100C300012300190029901988142DFD0FFF790FABB
:100C4000C117490F0918C908C900451A0498A842D4
:100C5000F4D0FFF785FA0C900898C0190690069812
:100C6000371A5B48874237D30698002818D0019876
:100C700002900C980D900698564B0495002208900F
:100C800050001618F11808464030477F9F55867F60
:100C90004E70C07F521C88701F2AF1DB0020069026
:100CA0000A9802284DD04EE048482430C1E7474812
:100CB0003630BEE745484830BBE744485A30B8E7CD
:100CC00042486C30B5E741487E30B2E73F4890304B
:100CD000AFE73E48A230ACE70A98022801D10020D5
:100CE0000A90069800282ED00D980090394B029A51
:100CF00005990498FFF7E1FE0C98364B00905D33A0
:100D00002846019A0599FFF7D8FE38020026304997
:100D1000C01B01F015FD1190C2B2700037182D48AC
:100D20000FAB381801465D31FFF748FC29485D38A4
:100D300039180FA800F05FF9761C1F2E21DA1198E0
:100D4000EAE700200A900D980090224B029A05993C
:100D50000498FFF7B2FE1F4F1E4E5D3F39463046E6
:100D600000F049F9F91CF01C00F045F9022670006A
:100D700032181848D119101800F03DF9761C1F2EB2
:100D8000F5DB80220920C006826113480821491C36
:100D90008142FCDB11490A810821491C8142FCDBAC
:100DA000FFE60F4910B5401E884201D9012010BD51
:100DB0000C4948610C480722C3691B021B0A4C04FA
:100DC0002343C361002088610A6110BD1C2900080B
:100DD000B80B0000C7000020A086010020000048DA
:100DE000FFFFFF0000E000E004ED00E0F0B50121AE
:100DF00095B0480400F073FB402000900221684643
:100E000001710325457100248471C471092069466C
:100E1000C00601F0D6F9092005220621C00601F01E
:100E20003CFA802601276846009607714571847157
:100E3000C47109206946C00601F0C3F901214804C4
:100E400000F056FB684684833B2008906846848403
:100E500008A88B4D847107A9284600F03DFD60214C
:100E6000684601814781848112200490684684820B
:100E7000C482A9150183448302A9284600F0CDFD50
:100E80000821284600F016FF0121284600F0B9FD90
:100E90000121284601F0C1F801225102284601F043
:100EA000B4F80121084600F01AFB764800F0E0FB98
:100EB0007348754D34300A9010200C900F96000145
:100EC0000B9586001090714F0E9440010D97139072
:100ED000119612940AA914946A4800F022FC012287
:100EE0000221684800F064FC694806600020410067
:100EF000401C80B26C52B842F9D36648047015B0F9
:100F0000F0BDF8B586461F2900D91F2100205E4B91
:100F10008C46188058800222054625E06800291872
:100F200070460E187478684604707046415C6846D6
:100F30004170B178817000246846075D002639064B
:100F400001D5222000E0122051005852521C79068F
:100F5000761C0F0EF6B292B2082EF0D3641CE4B2E7
:100F6000032CE9D36D1CADB26545D7D347490020AA
:100F70008A4204D25400521C185392B2F8E7414CF2
:100F8000204600F010FC0121204600F0F3FB3C4C11
:100F90000021204600F0DEFC0021204600F05EFE2D
:100FA0000921C906888A80221043888201212046AF
:100FB00000F003FD374901200870F8BD10B5012489
:100FC0006402204600F0FCFB012813D100212C48CC
:100FD00000F0F3FC00212B4800F0CCFB204600F091
:100FE000FDFB2C49002008700920C006818A802260
:100FF0009143818210BD30B500220A704A708A7018
:101000008578002D3AD04278037806204343D817DC
:10101000C00DC018400A40026A43181A120AFF386D
:10102000013800D54042FF240134201A5043000407
:10103000040EA81A1D12C0B22B0001F062FC0604B7
:10104000080D11151A1F12180A70221802E0231831
:101050000B7012184A7010E0087012184A700BE0FA
:10106000087023184B7002E023180B70487010189A
:1010700003E012180A7048702018887030BD000014
:1010800000440140300002408201002012030000B1
:1010900000E100E018000020F84801680122114337
:1010A00001604168F64A114041600168F54A11400B
:1010B00001600168012292049143016041683F226E
:1010C000120491434160C16A09090901C162016BBF
:1010D000ED4A11400163416B490849004163002119
:1010E00081607047E54900228A7088707047034626
:1010F0000020E2495A090CD0012A0CD0022A0CD057
:10110000496BDA06D20E012393400B4200D0012036
:1011100070470968F5E7096AF3E7496AF1E718B526
:1011200000200524240300901120FFF7E0FF009920
:10113000491C0091A14201D00028F5D01120FFF7F1
:10114000D6FF002800D0012018BDCC4A1168F82332
:101150009943C000084310607047C84900280868D8
:1011600002D00122104301E04008400008607047AF
:10117000C24A516BF8239943C0000843506370473B
:10118000BE490028486B02D00122104301E040080C
:10119000400048637047B94904220028486B01D0D9
:1011A000904300E0104348637047B4490A6A52080C
:1011B00052000A620A6A04239A430A620A6A0243D4
:1011C0000A627047AD490A6A18239A430A620A6A9A
:1011D00002430A627047A9490028486A02D00122E6
:1011E000104301E0400840004862704710B5A34A30
:1011F00053687B24E403A3435360536808430343C9
:10120000536010BD01229D4912060028086801D0D4
:10121000104300E090430860704701229749120490
:101220000028486B01D0104300E0904348637047AA
:10123000924AD16A090909010143D162704701222A
:101240008E49D2040028086801D0104300E0904382
:1012500008607047894A53681B021B0A000608434E
:10126000184350607047854A5168890889000143D6
:1012700051607047814840680C21084070477F4AA0
:101280005168F02399430143516070477B4A51688C
:1012900007231B02994301435160704777494A680D
:1012A00001239B039A434A604A6883B21A434A6007
:1012B0000A6B8B159A430A630A6B000C02430A639C
:1012C00070476E490A6B40239A430A630A6B0243D4
:1012D0000A63704769490A6B10239A430A630A6BD1
:1012E00002430A637047020F6449012A0AD0022AA6
:1012F0000A6B0BD003239B049A430A630A6B0243D5
:101300000A6370470A6B92089200F6E703231B04F6
:10131000F2E75A490A6B80239A430A630A6B024335
:101320000A637047F8B5554D0446686800210C22E1
:10133000564E104005D0042803D0082803D00C28AE
:101340001AD026601AE06968686803228902D2030D
:101350000F0F1040BF1C00280AD0E86A0107090FD0
:10136000491C304601F0ECF978430146216005E064
:10137000474839464143F9E7464820606868464F88
:101380000006000F3B5C20680246DA4062606B6832
:101390005B055B0FFB5CDA40A2602B6BDB0501D4C5
:1013A0003E4B05E06B685B0401D4530800E09308F2
:1013B000E3602B6B5F063A4B03D4394F123727613A
:1013C00000E023612F6BFF0601D4666100E06061DD
:1013D0002F6BBF070ED02F6BBF07BF0F012F0BD096
:1013E0002F6BBF07BF0F022F08D02F6BFF43BF0724
:1013F00006D006E0A26104E0A06102E0A36100E083
:10140000A6612F6BBF03BF0F0FD02F6BBF03BF0FA2
:10141000012F0CD02F6BBF03BF0F022F09D02F6BF2
:10142000BF03BF0F032F06D006E0E26104E0E061D6
:1014300002E0E36100E0E6612F6B3F03BF0F0FD0D6
:101440002A6B1203920F012A0CD0286B0003800F25
:10145000022809D0286B0003800F032806D006E07D
:10146000226204E0206202E0236200E02662286B30
:10147000000617D407486062F8BD00000010024063
:101480000CB8FF08FFFFF6FEACFEF0FF00127A007A
:1014900000093D00006CDC0219000020809FD5008F
:1014A000008000006162E7E735490A6A02430A6288
:1014B000704701223249D2030028086A01D0104344
:1014C00000E090430862704701222D491204002871
:1014D000086A01D0104300E0904308627047284A30
:1014E0000029516901D0014300E0814351617047F7
:1014F000234A0029916901D0014300E081439161B1
:1015000070471F4A0029D16901D0014300E081439F
:10151000D16170471A4A0029916A01D0014300E065
:10152000814391627047164A0029D16801D0014376
:1015300000E08143D1607047114A0029116901D050
:10154000014300E08143116170470D4A0029517A3F
:1015500001D0014300E08143517270470848416A5D
:1015600001221206114341627047054A0146926802
:1015700000200A4200D0012070470149887270475C
:101580000010024030B5817801220378002915D07F
:101590009C081749A400641821689B07DD0EFF23EF
:1015A000AB40994343789B071B0EAB400B43236032
:1015B0000078C006C00E82400E4804E0D806C00E77
:1015C00082400C488030026030BD0B4A002911690E
:1015D00001D0014300E081431161704704220749B3
:1015E0000428086902D09043086170471043FBE764
:1015F00000E400E000E100E000ED00E000E000E0D9
:101600000F4880F308880F480168090E0E4A91427E
:1016100005D10E480E4901600E480F4901600F4880
:1016200080470F480047FEE7FEE7FEE7FEE7FEE7DC
:10163000FEE700000B480C490A4A0C4B70470000BB
:10164000F00A0020040000001F00000018100240F3
:10165000010000000000014000000000A925000872
:10166000B5000008F0080020F00A0020F008002073
:10167000F0B50168694A11400160002101604160D4
:101680008160C1606649664B08390F22984201D1DA
:10169000486823E0624CF0231434A04229D0604D06
:1016A0001C012835A8422BD05D4E1D023C36B042AD
:1016B0002DD05B4F1E035037B8422FD0584F6437A0
:1016C000B84204D148681A0408E04860F0BD544F9D
:1016D0007837B84204D148680F2212061043F4E765
:1016E0005049504F0839B842D2D04E4A1432904235
:1016F00002D148681843E8E74A4A2832904202D1AA
:1017000048682043E1E7474A3C32904202D14868AA
:101710002843DAE7434A50329042D7D148683043F1
:10172000D3E730B50368404A0C6A13408A684D69B4
:1017300022430C692C4322438C692243CC69224307
:101740004C6A22438C6A22431A430260CA68426090
:101750000A6882604968C16030BD00210160416053
:101760008160C160016141618161C1610162416269
:10177000816270470029016802D00122114301E013
:10178000264A11400160704710B58030826A0B0F05
:101790009C000F23A3409A438262826A09010909CF
:1017A0000A43826210BD41607047406880B2704752
:1017B000002A026801D00A4300E08A4302607047B1
:1017C00001460020CA0002D5164A083A01E0144A30
:1017D000083A12680A4200D001207047C10002D5C1
:1017E0001049083901E00E49083948607047014640
:1017F0000020CA0002D50B4A083A01E0084A083A1C
:1018000012680A4200D001207047C10002D5054984
:10181000083901E00249083948607047FEFF0000BE
:1018200008000240080402400F80FFFFF94910B58C
:10183000884202D10121C4143AE00121890788427B
:1018400006D101210846FFF777FE0021012008E0BC
:10185000F149884208D101210220FFF76DFE0021E5
:101860000220FFF769FE10BDEC49884206D1012134
:101870001020FFF761FE00211020F2E7E8498842BE
:1018800006D101212020FFF757FE00212020E8E7A4
:10189000E449884207D1841501212046FFF74CFE18
:1018A00000212046DDE7E049884209D101210C04EE
:1018B0002046FFF738FE00212046FFF734FE10BD1A
:1018C000DA49884202D101214C04F1E7D849884223
:1018D000F5D101218C04EBE710B50288CD4B98427D
:1018E00006D00124A407A04202D0CB4CA04203D1D1
:1018F0007024A2434C882243C84CA04203D0CD4C54
:1019000022400C89224302804A68C2620A8802850A
:10191000984208D0C44A904205D0C44A904202D0AE
:10192000C34A904201D1897A01860121818210BD8A
:101930000021C94341600021018001814180817201
:101940007047018582827047028870239A430A4358
:101950000280704741627047C1627047406A7047B9
:10196000008D704702220029018801D0114300E058
:1019700091430180704704220029018801D011435E
:1019800000E091430180704780220029018801D046
:10199000114300E0914301807047028808239A4375
:1019A000028002880A43028070470288A14B1A40D5
:1019B000028002880A43028070470029018802D011
:1019C0000122114301E0490849000180704710B528
:1019D0000A884B88CC881A438B8823431A430B8987
:1019E0001A434B8989891A430A434030828010BDCB
:1019F0000021018041808180C180018141818181FC
:101A0000704740300029818803D00122D20311435E
:101A100001E04904490C8180704730B5028C5208BE
:101A200052000284038C8288048B7025AC43A40886
:101A30000D88A40025430224A3438C891C434B88B2
:101A40002343744CA04208D0774CA04205D0774C79
:101A5000A04202D0764CA0420DD10824A343CC89E9
:101A60001C4304239C438B882343724C22400C8AE2
:101A700014434A8A22438280058389684163038430
:101A800030BD70B5028C10239A430284048C828886
:101A9000038B694D2B400D782D062D0C1D43202303
:101AA0009C438B891B051E0C4B8826431B051B0C76
:101AB000584C3343A04202D05B4EB04219D15F4E26
:101AC00032400E8AB604360C3243A04211D1802433
:101AD000A343CC892405240C1C4340239C438B88BE
:101AE0001B051B0C2343564C22404C8AA404240C97
:101AF00022438280058389688163038470BD30B589
:101B0000028C504B1A400284038C8288848B70258F
:101B1000AC43A4080D88A40025434B4C23400C7B08
:101B20002406240C1C438B781B061B0C2343394CC6
:101B3000A04215D1424C23408C7B2406240C1C432C
:101B40003E4B1C400B791B061B0C23433F4C224091
:101B50000C8A2405240C14434A8A1205120C2243D1
:101B6000828085838968C163038430BD30B5028C6F
:101B7000374B1A400284048C8388828B2E4D2A4076
:101B80000D782D062D0C1543324A14400A7B12079E
:101B9000120C22438C782407240C14431D4A9042D3
:101BA00005D12D4A13400A8A9205120C13438380F3
:101BB000858389680164048430BD002101804180EF
:101BC000818081608181C18101824182704730B50D
:101BD000034618330124058C8C40A5430584002955
:101BE00010D008290ED0091F0804400CC018016845
:101BF00007231B039943016001681206120C11436D
:101C0000016030BD4808C018016870239943016025
:101C10000168F4E7002C014000040040001000407F
:101C200000140040002000400040014000440140FA
:101C300000480140FFFC0000FF8C0000FFFB00009B
:101C4000FFF70000FFFE0000FFFD0000FFCF0000D7
:101C5000FFEF0000FFDF0000FFBF0000416370479F
:101C600081637047C163704701647047028B7023C2
:101C70009A430A4302837047028BF64B09021A40CB
:101C8000114301837047828B70239A430A438283F6
:101C90007047828BEF4B09021A40114381837047D2
:101CA0000029818802D00122114301E0490849003E
:101CB00081807047028B08239A430A43028370474E
:101CC000028BE54B09021A40114301837047828B56
:101CD00008239A430A4382837047828BDE4B0902B2
:101CE0001A40114381837047028B04239A430A43AD
:101CF00002837047028BD94B09021A4011430183BA
:101D00007047828B04239A430A4382837047828BF5
:101D1000D24B09021A40114381837047028B802302
:101D20009A430A4302837047028B5204520C090201
:101D3000114301837047828B80239A430A43828335
:101D40007047828B5204520C090211438183704701
:101D5000028C02239A430A4302847047028C0823B0
:101D60009A430A4302847047028C20239A43090154
:101D7000114301847047028C80239A430901114367
:101D800001847047028CB64B09021A40114301844A
:101D90007047028CB04B09021A401143018470470E
:101DA000028CB04B09031A40114301847047028929
:101DB00008239A43028102890A430281704710B5C1
:101DC0000123048C8B409C430484038C8A4013437E
:101DD000038410BD10B50423048C8B409C43048401
:101DE000038C8A401343038410BD04220029818898
:101DF00001D0114300E0914381807047828B9A4B60
:101E00001A408283828B09020A4382837047828B45
:101E10000C239A438283828B0A4382837047028B0E
:101E2000914B1A400283028B09020A4302837047D6
:101E3000F0B5048C1026B4430484058B048C8B4FBE
:101E40001B0309013D402B4312021A43A0239C436C
:101E50000C43344302830484F0BD028B0C239A4369
:101E60000283028B0A430283704770B5048C6408B6
:101E700064000484058B048C1B011343F3260A229F
:101E8000B54394432B430C4301210C430383048447
:101E900070BDF8B5044608884E888A880B890D46BF
:101EA00000281DD0042824D00828208C2AD070496E
:101EB00008402084A08B278C31036C4E12023040E6
:101EC0000243180310436B4AA08317400F430121BC
:101ED00009030F432784E9882046FFF78FFFF8BDE9
:101EE00031462046FFF7C1FFE9882046FFF7B5FFDE
:101EF000F8BD31462046FFF79BFFE9882046FFF7F3
:101F00008EFFF8BD5C4908402084A18B208C3702ED
:101F1000F3261B01B14313430B435849A3830840E5
:101F2000FF213843013108432084E9882046FFF728
:101F30006EFFF8BD00210180418001228280C180B6
:101F400001817047F8B50C464988002601250746EF
:101F5000002900D10226A288012A00D1022520886A
:101F600023890028384610D0FFF762FFE188384601
:101F7000FFF755FF23892A4631463846FFF775FF9C
:101F8000E1883846FFF769FFF8BDFFF76EFFE1888B
:101F90003846FFF762FF23892A4631463846FFF765
:101FA00047FFE1883846FFF73AFFF8BD406B7047BE
:101FB000806B7047C06B7047006C7047002A828945
:101FC00001D00A4300E08A438281704781827047D2
:101FD0000246128A00200A4200D001207047C943FD
:101FE000018270470246138A002092890B400A4002
:101FF000002B02D0002A00D001207047C943018283
:1020000070471143403001817047002A828901D016
:102010000A4300E08A4382817047082200298188B0
:1020200001D0114300E09143818070470189C908C4
:10203000C90001817047028970239A430A430281D3
:10204000704710B50446FFF7F6FF208907210843C3
:10205000208110BDFF8F0000FFF70000FFFB000094
:10206000FFFD0000FFDF0000FFF30000FF0C000099
:10207000FFEF0000FF5F0000FFFE0000FFF5000023
:1020800070B516460D46044660290CD00122314633
:10209000FFF7EBFE29462046FFF7CDFF20890721F9
:1020A0000843208170BD01223146FFF7C1FEF1E7F0
:1020B00010B504891B021343E4B20B43234303818D
:1020C00010BD10B50446FFF7F3FF2089C108C90011
:1020D00007200143702081430143218110BD10B5C9
:1020E0000446FFF7E5FF2089012189030843208189
:1020F00010BD828870239A43828082880A4382803E
:1021000070470289D208D200028102890A43028103
:102110007047028980239A43028102890A4302811F
:10212000704770B50689048B058CF608F6000E43DF
:102130000C4906810C40FF2102310C43AA218D433A
:102140001901114329430483018470BD80220029B1
:10215000818801D0114300E0914381807047403075
:1021600001827047FCFC0000092110B5C9068842B5
:1021700002D101214C0404E05049884209D10121D7
:1021800004022046FFF7C6F900212046FFF7C2F9F6
:1021900010BD4B49884202D101210402F1E74949AF
:1021A000884202D101210C05EBE74749884202D160
:1021B00001214402E5E745498842E9D101218C0526
:1021C000DFE7F0B50022012423460D6893401D404F
:1021D0009D422AD10D79012D01D0022D12D187689F
:1021E00055000326AE40B74387604E79AE40856800
:1021F0002E43866085889D43858085888B799340B2
:102200001D438580066855000323AB409E4306604E
:102210000E790768AE403E430660C6689E43C660BE
:10222000CB79AB40C5682B43C360521C102ACBD37B
:10223000F0BD2749016000210171012242718171C5
:10224000C1717047012208B512040A430092C261AD
:10225000C1610099C161C169C069009008BD0246B1
:10226000128A00200A4200D001207047008A70477D
:102270000246928A00200A4200D001207047808ADC
:1022800070478161704701857047002A01D08161E4
:10229000704701857047818270474B07DB0E9A407B
:1022A000C90810B589000818016A0F249C40A14391
:1022B0000162016A1143016210BD00000004004880
:1022C00000080048000C00480010004800140048B6
:1022D000FFFF0000864910B5884208D1441501214E
:1022E0002046FFF720F900212046FFF71CF910BD1A
:1022F00030B5C3687F4A8C6813400A680D79224361
:10230000CC686D032C4322430C69496922430A437C
:102310001A43C26030BD0021016001718160C1605B
:102320000161416170470029816801D0012200E00C
:10233000022211438160704701617047002A0269DF
:1023400001D00A4300E08A43026170470122D203B0
:102350000029C16801D0114300E09143C16070477A
:10236000012292030029C16801D0114300E091438A
:10237000C16070470122D2050029C16801D0114314
:1023800000E09143C1607047090411430162704746
:10239000C2681F239B069A430A43C260704701220A
:1023A00092050029C16801D0114300E09143C1604A
:1023B000704701225049D2050028886801D0104397
:1023C00000E090438860704701224B499205002845
:1023D000886801D0104300E0904388607047012274
:1023E000454912060028886801D0104300E0904358
:1023F00088607047836A0B438362426170470122A1
:1024000052030029C16801D0114300E09143C1602B
:102410007047012212040029C16801D0114300E075
:102420009143C1607047012212030029C16801D0A5
:10243000114300E09143C16070478268002101238D
:10244000DB071A4382600F231B038268491CD20FEB
:10245000D207994201D0002AF7D18168002901DB17
:10246000006C704700207047816810221143816022
:10247000704781680422114381607047006C80B20C
:1024800070470029C16802D00122114301E04908C8
:102490004900C1607047C26802239A43C260C268A3
:1024A0000A43C2607047002A426801D00A4300E034
:1024B0008A434260704702460020CB0104D59268EF
:1024C00001231B069A4300E012680A4200D0012053
:1024D00070470160704702465368002012680B4045
:1024E0000A4202D0002B00D00120704701607047E3
:1024F0000024014003D2FFFF0027014000212848AB
:10250000C9430160274A4261002202710161012131
:1025100081607047224881680122114381607047C1
:102520001F4A9168182399430143916070471C4AE0
:102530009168602399430143916070471849802254
:102540000028886801D0104300E0904388607047FD
:102550001349086170471249486170471049086083
:10256000086870470E490880086870470C49087071
:102570000868704710B50022094B03E09400045925
:102580001C60521C8A42F9D3186810BD04480068C8
:10259000704703490871704701480079704700008F
:1025A00000300240B71DC10410B54E480168012239
:1025B0001143016041684C4A1140416001684B4A37
:1025C0001140016001680122920491430160416859
:1025D0003F22120491434160C16A09090901C162A5
:1025E000016BFF22543291430163416B490849005A
:1025F00041630021816000F02EF810BD70B5394DA7
:1026000069680C2001403A483A4C03D0042901D0B3
:10261000082901D0206014E06A68696803239202E7
:10262000DB03160F1940B61C002907D0E96A090719
:10263000090F491C00F084F87043EBE72E4846432D
:10264000266068682B490006000F091D085C216898
:10265000C140216070BD1CB500212248019100914C
:10266000026801231B041A4302605B000522120367
:1026700004681C400094019C641C0194009C002C84
:1026800002D1019C9442F3D10268920328D5012122
:1026900000911A4A1121116041684160416841600E
:1026A00041687F22D20391434160416811221204A4
:1026B0001143416001680122120611430160016863
:1026C0008901FCD54168890889004160416802227E
:1026D0001143416041680907890F0229FAD11CBDE5
:1026E00000911CBD001002400CB8FF08FFFFF6FE71
:1026F00000127A002C00002000093D00002002405A
:102700000C4A30B511460C4C44310B46C03B0B62B1
:10271000CA61372106E0020C8D0012185A51074A8F
:10272000504300190A46491E002AF4DC30BD01203E
:10273000E6E7000024080020E119D666CD0D01006F
:10274000002203098B422CD3030A8B4211D30023AE
:102750009C464EE003460B433CD4002243088B4288
:1027600031D303098B421CD3030A8B4201D3944615
:102770003FE0C3098B4201D3CB01C01A5241830908
:102780008B4201D38B01C01A524143098B4201D3C2
:102790004B01C01A524103098B4201D30B01C01AED
:1027A0005241C3088B4201D3CB00C01A5241830867
:1027B0008B4201D38B00C01A524143088B4201D394
:1027C0004B00C01A5241411A00D2014652411046F4
:1027D00070475DE0CA0F00D04942031000D3404269
:1027E000534000229C4603098B422DD3030A8B429F
:1027F00012D3FC22890112BA030A8B420CD389013D
:1028000092118B4208D3890192118B4204D3890122
:102810003AD0921100E08909C3098B4201D3CB0160
:10282000C01A524183098B4201D38B01C01A524115
:1028300043098B4201D34B01C01A524103098B4219
:1028400001D30B01C01A5241C3088B4201D3CB0004
:10285000C01A524183088B4201D38B00C01A5241E7
:10286000D9D243088B4201D34B00C01A5241411ABE
:1028700000D20146634652415B10104601D34042EC
:10288000002B00D54942704763465B1000D340429D
:1028900001B50020C046C04602BD70477047704772
:1028A000754600F023F8AE46050069465346C00859
:1028B000C000854618B020B5FEF7BCFE60BC0027FE
:1028C0004908B6460026C0C5C0C5C0C5C0C5C0C5FC
:1028D000C0C5C0C5C0C5403D49008D4670470446CF
:1028E000C046C0462046FDF734FC00000048704753
:1028F0008C08002001491820ABBEFEE7260002002C
:10290000704730B47446641E2578641CAB4200D214
:102910001D46635D5B00E31830BC184700FFFF2BCA
:10292000FFFF55FFFF80FFFFABFFFFD5FFFFA55A5D
:10293000CDA078D79BAAE1A0C8EBA5E6F5AAFFFF3A
:10294000AFFFFFA5FFC8A0FF96A0FF649BFF3296D4
:10295000FF1400FFFF0AFFCD14FF9B1EFF6914FF49
:102960009B0AFFCD4BFFFF4BFF0046FFFF46FF00DA
:1029700041FFFF41FF0000FFFF46FF0046FFFF2829
:10298000FF0028FFFF00FF0028FFFF009BFF46FF1E
:10299000FFC89BFF32FFFF789BFFA0FFFF78FFFF80
:1029A00064FFFF50FFFF3CFFFF28FFFF00FFFF0019
:1029B000FFFF00FFFF0000FF0000FF0000FF00001E
:1029C000FF0000FFA0FFFFA0FFFF00FFFF00FFFFD1
:1029D0001455AAFFE6E655AAFFE6E655AAFFE6E685
:1029E00055AAFFE6E655AAFFE6E655AAFFE6E60089
:1029F000000000F00F2B2B2B1C3A555555466480D8
:102A00008080718FABABAB9CBAD5D5D5C6E4400006
:102A100000008080000000808000000080800000B6
:102A200000808000000080800000008080000000A6
:102A3000502A00080000002040000000F8000008B4
:102A4000902A000840000020B00A0000140100088D
:102A50000000000000000000000000000000000076
:102A60000000000000000000000000000001020360
:102A7000040102030406070809000000006CDC02E0
:102A8000000000000000000001020304060708091E
:0400000508001601D8
:00000001FF
